{
  "contractName": "Authentication",
  "abi": [
    {
      "inputs": [
        {
          "internalType": "address",
          "name": "initialOwner",
          "type": "address"
        }
      ],
      "stateMutability": "nonpayable",
      "type": "constructor"
    },
    {
      "inputs": [
        {
          "internalType": "address",
          "name": "sender",
          "type": "address"
        },
        {
          "internalType": "uint256",
          "name": "tokenId",
          "type": "uint256"
        },
        {
          "internalType": "address",
          "name": "owner",
          "type": "address"
        }
      ],
      "name": "ERC721IncorrectOwner",
      "type": "error"
    },
    {
      "inputs": [
        {
          "internalType": "address",
          "name": "operator",
          "type": "address"
        },
        {
          "internalType": "uint256",
          "name": "tokenId",
          "type": "uint256"
        }
      ],
      "name": "ERC721InsufficientApproval",
      "type": "error"
    },
    {
      "inputs": [
        {
          "internalType": "address",
          "name": "approver",
          "type": "address"
        }
      ],
      "name": "ERC721InvalidApprover",
      "type": "error"
    },
    {
      "inputs": [
        {
          "internalType": "address",
          "name": "operator",
          "type": "address"
        }
      ],
      "name": "ERC721InvalidOperator",
      "type": "error"
    },
    {
      "inputs": [
        {
          "internalType": "address",
          "name": "owner",
          "type": "address"
        }
      ],
      "name": "ERC721InvalidOwner",
      "type": "error"
    },
    {
      "inputs": [
        {
          "internalType": "address",
          "name": "receiver",
          "type": "address"
        }
      ],
      "name": "ERC721InvalidReceiver",
      "type": "error"
    },
    {
      "inputs": [
        {
          "internalType": "address",
          "name": "sender",
          "type": "address"
        }
      ],
      "name": "ERC721InvalidSender",
      "type": "error"
    },
    {
      "inputs": [
        {
          "internalType": "uint256",
          "name": "tokenId",
          "type": "uint256"
        }
      ],
      "name": "ERC721NonexistentToken",
      "type": "error"
    },
    {
      "inputs": [
        {
          "internalType": "address",
          "name": "owner",
          "type": "address"
        }
      ],
      "name": "OwnableInvalidOwner",
      "type": "error"
    },
    {
      "inputs": [
        {
          "internalType": "address",
          "name": "account",
          "type": "address"
        }
      ],
      "name": "OwnableUnauthorizedAccount",
      "type": "error"
    },
    {
      "anonymous": false,
      "inputs": [
        {
          "indexed": true,
          "internalType": "address",
          "name": "owner",
          "type": "address"
        },
        {
          "indexed": true,
          "internalType": "address",
          "name": "approved",
          "type": "address"
        },
        {
          "indexed": true,
          "internalType": "uint256",
          "name": "tokenId",
          "type": "uint256"
        }
      ],
      "name": "Approval",
      "type": "event"
    },
    {
      "anonymous": false,
      "inputs": [
        {
          "indexed": true,
          "internalType": "address",
          "name": "owner",
          "type": "address"
        },
        {
          "indexed": true,
          "internalType": "address",
          "name": "operator",
          "type": "address"
        },
        {
          "indexed": false,
          "internalType": "bool",
          "name": "approved",
          "type": "bool"
        }
      ],
      "name": "ApprovalForAll",
      "type": "event"
    },
    {
      "anonymous": false,
      "inputs": [
        {
          "indexed": true,
          "internalType": "address",
          "name": "previousOwner",
          "type": "address"
        },
        {
          "indexed": true,
          "internalType": "address",
          "name": "newOwner",
          "type": "address"
        }
      ],
      "name": "OwnershipTransferred",
      "type": "event"
    },
    {
      "anonymous": false,
      "inputs": [
        {
          "indexed": true,
          "internalType": "address",
          "name": "from",
          "type": "address"
        },
        {
          "indexed": true,
          "internalType": "address",
          "name": "to",
          "type": "address"
        },
        {
          "indexed": true,
          "internalType": "uint256",
          "name": "tokenId",
          "type": "uint256"
        }
      ],
      "name": "Transfer",
      "type": "event"
    },
    {
      "inputs": [
        {
          "internalType": "address",
          "name": "to",
          "type": "address"
        },
        {
          "internalType": "uint256",
          "name": "tokenId",
          "type": "uint256"
        }
      ],
      "name": "approve",
      "outputs": [],
      "stateMutability": "nonpayable",
      "type": "function"
    },
    {
      "inputs": [
        {
          "internalType": "address",
          "name": "owner",
          "type": "address"
        }
      ],
      "name": "balanceOf",
      "outputs": [
        {
          "internalType": "uint256",
          "name": "",
          "type": "uint256"
        }
      ],
      "stateMutability": "view",
      "type": "function",
      "constant": true
    },
    {
      "inputs": [
        {
          "internalType": "uint256",
          "name": "tokenId",
          "type": "uint256"
        }
      ],
      "name": "getApproved",
      "outputs": [
        {
          "internalType": "address",
          "name": "",
          "type": "address"
        }
      ],
      "stateMutability": "view",
      "type": "function",
      "constant": true
    },
    {
      "inputs": [
        {
          "internalType": "address",
          "name": "owner",
          "type": "address"
        },
        {
          "internalType": "address",
          "name": "operator",
          "type": "address"
        }
      ],
      "name": "isApprovedForAll",
      "outputs": [
        {
          "internalType": "bool",
          "name": "",
          "type": "bool"
        }
      ],
      "stateMutability": "view",
      "type": "function",
      "constant": true
    },
    {
      "inputs": [],
      "name": "name",
      "outputs": [
        {
          "internalType": "string",
          "name": "",
          "type": "string"
        }
      ],
      "stateMutability": "view",
      "type": "function",
      "constant": true
    },
    {
      "inputs": [],
      "name": "owner",
      "outputs": [
        {
          "internalType": "address",
          "name": "",
          "type": "address"
        }
      ],
      "stateMutability": "view",
      "type": "function",
      "constant": true
    },
    {
      "inputs": [
        {
          "internalType": "uint256",
          "name": "tokenId",
          "type": "uint256"
        }
      ],
      "name": "ownerOf",
      "outputs": [
        {
          "internalType": "address",
          "name": "",
          "type": "address"
        }
      ],
      "stateMutability": "view",
      "type": "function",
      "constant": true
    },
    {
      "inputs": [],
      "name": "renounceOwnership",
      "outputs": [],
      "stateMutability": "nonpayable",
      "type": "function"
    },
    {
      "inputs": [
        {
          "internalType": "address",
          "name": "from",
          "type": "address"
        },
        {
          "internalType": "address",
          "name": "to",
          "type": "address"
        },
        {
          "internalType": "uint256",
          "name": "tokenId",
          "type": "uint256"
        }
      ],
      "name": "safeTransferFrom",
      "outputs": [],
      "stateMutability": "nonpayable",
      "type": "function"
    },
    {
      "inputs": [
        {
          "internalType": "address",
          "name": "from",
          "type": "address"
        },
        {
          "internalType": "address",
          "name": "to",
          "type": "address"
        },
        {
          "internalType": "uint256",
          "name": "tokenId",
          "type": "uint256"
        },
        {
          "internalType": "bytes",
          "name": "data",
          "type": "bytes"
        }
      ],
      "name": "safeTransferFrom",
      "outputs": [],
      "stateMutability": "nonpayable",
      "type": "function"
    },
    {
      "inputs": [
        {
          "internalType": "address",
          "name": "operator",
          "type": "address"
        },
        {
          "internalType": "bool",
          "name": "approved",
          "type": "bool"
        }
      ],
      "name": "setApprovalForAll",
      "outputs": [],
      "stateMutability": "nonpayable",
      "type": "function"
    },
    {
      "inputs": [
        {
          "internalType": "bytes4",
          "name": "interfaceId",
          "type": "bytes4"
        }
      ],
      "name": "supportsInterface",
      "outputs": [
        {
          "internalType": "bool",
          "name": "",
          "type": "bool"
        }
      ],
      "stateMutability": "view",
      "type": "function",
      "constant": true
    },
    {
      "inputs": [],
      "name": "symbol",
      "outputs": [
        {
          "internalType": "string",
          "name": "",
          "type": "string"
        }
      ],
      "stateMutability": "view",
      "type": "function",
      "constant": true
    },
    {
      "inputs": [
        {
          "internalType": "uint256",
          "name": "tokenId",
          "type": "uint256"
        }
      ],
      "name": "tokenURI",
      "outputs": [
        {
          "internalType": "string",
          "name": "",
          "type": "string"
        }
      ],
      "stateMutability": "view",
      "type": "function",
      "constant": true
    },
    {
      "inputs": [
        {
          "internalType": "address",
          "name": "from",
          "type": "address"
        },
        {
          "internalType": "address",
          "name": "to",
          "type": "address"
        },
        {
          "internalType": "uint256",
          "name": "tokenId",
          "type": "uint256"
        }
      ],
      "name": "transferFrom",
      "outputs": [],
      "stateMutability": "nonpayable",
      "type": "function"
    },
    {
      "inputs": [
        {
          "internalType": "address",
          "name": "newOwner",
          "type": "address"
        }
      ],
      "name": "transferOwnership",
      "outputs": [],
      "stateMutability": "nonpayable",
      "type": "function"
    },
    {
      "inputs": [
        {
          "internalType": "address",
          "name": "to",
          "type": "address"
        },
        {
          "internalType": "uint256",
          "name": "tokenId",
          "type": "uint256"
        }
      ],
      "name": "mintToken",
      "outputs": [],
      "stateMutability": "nonpayable",
      "type": "function"
    },
    {
      "inputs": [
        {
          "internalType": "uint256",
          "name": "tokenId",
          "type": "uint256"
        }
      ],
      "name": "authenticate",
      "outputs": [
        {
          "internalType": "bool",
          "name": "",
          "type": "bool"
        }
      ],
      "stateMutability": "view",
      "type": "function",
      "constant": true
    }
  ],
  "bytecode": "0x608060405234801562000010575f80fd5b50604051620028073803806200280783398181016040528101906200003691906200027c565b806040518060400160405280601381526020017f41757468656e7469636174696f6e546f6b656e000000000000000000000000008152506040518060400160405280600481526020017f4155544800000000000000000000000000000000000000000000000000000000815250815f9081620000b3919062000510565b508060019081620000c5919062000510565b5050505f73ffffffffffffffffffffffffffffffffffffffff168173ffffffffffffffffffffffffffffffffffffffff16036200013b575f6040517f1e4fbdf700000000000000000000000000000000000000000000000000000000815260040162000132919062000605565b60405180910390fd5b6200014c816200015460201b60201c565b505062000620565b5f60065f9054906101000a900473ffffffffffffffffffffffffffffffffffffffff1690508160065f6101000a81548173ffffffffffffffffffffffffffffffffffffffff021916908373ffffffffffffffffffffffffffffffffffffffff1602179055508173ffffffffffffffffffffffffffffffffffffffff168173ffffffffffffffffffffffffffffffffffffffff167f8be0079c531659141344cd1fd0a4f28419497f9722a3daafe3b4186f6b6457e060405160405180910390a35050565b5f80fd5b5f73ffffffffffffffffffffffffffffffffffffffff82169050919050565b5f62000246826200021b565b9050919050565b62000258816200023a565b811462000263575f80fd5b50565b5f8151905062000276816200024d565b92915050565b5f6020828403121562000294576200029362000217565b5b5f620002a38482850162000266565b91505092915050565b5f81519050919050565b7f4e487b71000000000000000000000000000000000000000000000000000000005f52604160045260245ffd5b7f4e487b71000000000000000000000000000000000000000000000000000000005f52602260045260245ffd5b5f60028204905060018216806200032857607f821691505b6020821081036200033e576200033d620002e3565b5b50919050565b5f819050815f5260205f209050919050565b5f6020601f8301049050919050565b5f82821b905092915050565b5f60088302620003a27fffffffffffffffffffffffffffffffffffffffffffffffffffffffffffffffff8262000365565b620003ae868362000365565b95508019841693508086168417925050509392505050565b5f819050919050565b5f819050919050565b5f620003f8620003f2620003ec84620003c6565b620003cf565b620003c6565b9050919050565b5f819050919050565b6200041383620003d8565b6200042b6200042282620003ff565b84845462000371565b825550505050565b5f90565b6200044162000433565b6200044e81848462000408565b505050565b5b818110156200047557620004695f8262000437565b60018101905062000454565b5050565b601f821115620004c4576200048e8162000344565b620004998462000356565b81016020851015620004a9578190505b620004c1620004b88562000356565b83018262000453565b50505b505050565b5f82821c905092915050565b5f620004e65f1984600802620004c9565b1980831691505092915050565b5f620005008383620004d5565b9150826002028217905092915050565b6200051b82620002ac565b67ffffffffffffffff811115620005375762000536620002b6565b5b62000543825462000310565b6200055082828562000479565b5f60209050601f83116001811462000586575f841562000571578287015190505b6200057d8582620004f3565b865550620005ec565b601f198416620005968662000344565b5f5b82811015620005bf5784890151825560018201915060208501945060208101905062000598565b86831015620005df5784890151620005db601f891682620004d5565b8355505b6001600288020188555050505b505050505050565b620005ff816200023a565b82525050565b5f6020820190506200061a5f830184620005f4565b92915050565b6121d9806200062e5f395ff3fe608060405234801561000f575f80fd5b5060043610610114575f3560e01c8063715018a6116100a0578063a22cb4651161006f578063a22cb465146102dc578063b88d4fde146102f8578063c87b56dd14610314578063e985e9c514610344578063f2fde38b1461037457610114565b8063715018a61461027a57806379c65068146102845780638da5cb5b146102a057806395d89b41146102be57610114565b8063195ad926116100e7578063195ad926146101b257806323b872dd146101e257806342842e0e146101fe5780636352211e1461021a57806370a082311461024a57610114565b806301ffc9a71461011857806306fdde0314610148578063081812fc14610166578063095ea7b314610196575b5f80fd5b610132600480360381019061012d91906119dc565b610390565b60405161013f9190611a21565b60405180910390f35b610150610471565b60405161015d9190611ac4565b60405180910390f35b610180600480360381019061017b9190611b17565b610500565b60405161018d9190611b81565b60405180910390f35b6101b060048036038101906101ab9190611bc4565b61051b565b005b6101cc60048036038101906101c79190611b17565b610531565b6040516101d99190611a21565b60405180910390f35b6101fc60048036038101906101f79190611c02565b610557565b005b61021860048036038101906102139190611c02565b610656565b005b610234600480360381019061022f9190611b17565b610675565b6040516102419190611b81565b60405180910390f35b610264600480360381019061025f9190611c52565b610686565b6040516102719190611c8c565b60405180910390f35b61028261073c565b005b61029e60048036038101906102999190611bc4565b61074f565b005b6102a861088b565b6040516102b59190611b81565b60405180910390f35b6102c66108b3565b6040516102d39190611ac4565b60405180910390f35b6102f660048036038101906102f19190611ccf565b610943565b005b610312600480360381019061030d9190611e39565b610959565b005b61032e60048036038101906103299190611b17565b610976565b60405161033b9190611ac4565b60405180910390f35b61035e60048036038101906103599190611eb9565b6109dc565b60405161036b9190611a21565b60405180910390f35b61038e60048036038101906103899190611c52565b610a6a565b005b5f7f80ac58cd000000000000000000000000000000000000000000000000000000007bffffffffffffffffffffffffffffffffffffffffffffffffffffffff1916827bffffffffffffffffffffffffffffffffffffffffffffffffffffffff1916148061045a57507f5b5e139f000000000000000000000000000000000000000000000000000000007bffffffffffffffffffffffffffffffffffffffffffffffffffffffff1916827bffffffffffffffffffffffffffffffffffffffffffffffffffffffff1916145b8061046a575061046982610aee565b5b9050919050565b60605f805461047f90611f24565b80601f01602080910402602001604051908101604052809291908181526020018280546104ab90611f24565b80156104f65780601f106104cd576101008083540402835291602001916104f6565b820191905f5260205f20905b8154815290600101906020018083116104d957829003601f168201915b5050505050905090565b5f61050a82610b57565b5061051482610bdd565b9050919050565b61052d8282610528610c16565b610c1d565b5050565b5f60075f8381526020019081526020015f205f9054906101000a900460ff169050919050565b5f73ffffffffffffffffffffffffffffffffffffffff168273ffffffffffffffffffffffffffffffffffffffff16036105c7575f6040517f64a0ae920000000000000000000000000000000000000000000000000000000081526004016105be9190611b81565b60405180910390fd5b5f6105da83836105d5610c16565b610c2f565b90508373ffffffffffffffffffffffffffffffffffffffff168173ffffffffffffffffffffffffffffffffffffffff1614610650578382826040517f64283d7b00000000000000000000000000000000000000000000000000000000815260040161064793929190611f54565b60405180910390fd5b50505050565b61067083838360405180602001604052805f815250610959565b505050565b5f61067f82610b57565b9050919050565b5f8073ffffffffffffffffffffffffffffffffffffffff168273ffffffffffffffffffffffffffffffffffffffff16036106f7575f6040517f89c62b640000000000000000000000000000000000000000000000000000000081526004016106ee9190611b81565b60405180910390fd5b60035f8373ffffffffffffffffffffffffffffffffffffffff1673ffffffffffffffffffffffffffffffffffffffff1681526020019081526020015f20549050919050565b610744610e3a565b61074d5f610ec1565b565b610757610e3a565b60085f8373ffffffffffffffffffffffffffffffffffffffff1673ffffffffffffffffffffffffffffffffffffffff1681526020019081526020015f205f8281526020019081526020015f205f9054906101000a900460ff16156107f0576040517f08c379a00000000000000000000000000000000000000000000000000000000081526004016107e790611ff9565b60405180910390fd5b6107fa8282610f84565b600160075f8381526020019081526020015f205f6101000a81548160ff021916908315150217905550600160085f8473ffffffffffffffffffffffffffffffffffffffff1673ffffffffffffffffffffffffffffffffffffffff1681526020019081526020015f205f8381526020019081526020015f205f6101000a81548160ff0219169083151502179055505050565b5f60065f9054906101000a900473ffffffffffffffffffffffffffffffffffffffff16905090565b6060600180546108c290611f24565b80601f01602080910402602001604051908101604052809291908181526020018280546108ee90611f24565b80156109395780601f1061091057610100808354040283529160200191610939565b820191905f5260205f20905b81548152906001019060200180831161091c57829003601f168201915b5050505050905090565b61095561094e610c16565b8383610fa1565b5050565b610964848484610557565b6109708484848461110a565b50505050565b606061098182610b57565b505f61098b6112bc565b90505f8151116109a95760405180602001604052805f8152506109d4565b806109b3846112d2565b6040516020016109c4929190612051565b6040516020818303038152906040525b915050919050565b5f60055f8473ffffffffffffffffffffffffffffffffffffffff1673ffffffffffffffffffffffffffffffffffffffff1681526020019081526020015f205f8373ffffffffffffffffffffffffffffffffffffffff1673ffffffffffffffffffffffffffffffffffffffff1681526020019081526020015f205f9054906101000a900460ff16905092915050565b610a72610e3a565b5f73ffffffffffffffffffffffffffffffffffffffff168173ffffffffffffffffffffffffffffffffffffffff1603610ae2575f6040517f1e4fbdf7000000000000000000000000000000000000000000000000000000008152600401610ad99190611b81565b60405180910390fd5b610aeb81610ec1565b50565b5f7f01ffc9a7000000000000000000000000000000000000000000000000000000007bffffffffffffffffffffffffffffffffffffffffffffffffffffffff1916827bffffffffffffffffffffffffffffffffffffffffffffffffffffffff1916149050919050565b5f80610b628361139c565b90505f73ffffffffffffffffffffffffffffffffffffffff168173ffffffffffffffffffffffffffffffffffffffff1603610bd457826040517f7e273289000000000000000000000000000000000000000000000000000000008152600401610bcb9190611c8c565b60405180910390fd5b80915050919050565b5f60045f8381526020019081526020015f205f9054906101000a900473ffffffffffffffffffffffffffffffffffffffff169050919050565b5f33905090565b610c2a83838360016113d5565b505050565b5f80610c3a8461139c565b90505f73ffffffffffffffffffffffffffffffffffffffff168373ffffffffffffffffffffffffffffffffffffffff1614610c7b57610c7a818486611594565b5b5f73ffffffffffffffffffffffffffffffffffffffff168173ffffffffffffffffffffffffffffffffffffffff1614610d0657610cba5f855f806113d5565b600160035f8373ffffffffffffffffffffffffffffffffffffffff1673ffffffffffffffffffffffffffffffffffffffff1681526020019081526020015f205f82825403925050819055505b5f73ffffffffffffffffffffffffffffffffffffffff168573ffffffffffffffffffffffffffffffffffffffff1614610d8557600160035f8773ffffffffffffffffffffffffffffffffffffffff1673ffffffffffffffffffffffffffffffffffffffff1681526020019081526020015f205f82825401925050819055505b8460025f8681526020019081526020015f205f6101000a81548173ffffffffffffffffffffffffffffffffffffffff021916908373ffffffffffffffffffffffffffffffffffffffff160217905550838573ffffffffffffffffffffffffffffffffffffffff168273ffffffffffffffffffffffffffffffffffffffff167fddf252ad1be2c89b69c2b068fc378daa952ba7f163c4a11628f55a4df523b3ef60405160405180910390a4809150509392505050565b610e42610c16565b73ffffffffffffffffffffffffffffffffffffffff16610e6061088b565b73ffffffffffffffffffffffffffffffffffffffff1614610ebf57610e83610c16565b6040517f118cdaa7000000000000000000000000000000000000000000000000000000008152600401610eb69190611b81565b60405180910390fd5b565b5f60065f9054906101000a900473ffffffffffffffffffffffffffffffffffffffff1690508160065f6101000a81548173ffffffffffffffffffffffffffffffffffffffff021916908373ffffffffffffffffffffffffffffffffffffffff1602179055508173ffffffffffffffffffffffffffffffffffffffff168173ffffffffffffffffffffffffffffffffffffffff167f8be0079c531659141344cd1fd0a4f28419497f9722a3daafe3b4186f6b6457e060405160405180910390a35050565b610f9d828260405180602001604052805f815250611657565b5050565b5f73ffffffffffffffffffffffffffffffffffffffff168273ffffffffffffffffffffffffffffffffffffffff160361101157816040517f5b08ba180000000000000000000000000000000000000000000000000000000081526004016110089190611b81565b60405180910390fd5b8060055f8573ffffffffffffffffffffffffffffffffffffffff1673ffffffffffffffffffffffffffffffffffffffff1681526020019081526020015f205f8473ffffffffffffffffffffffffffffffffffffffff1673ffffffffffffffffffffffffffffffffffffffff1681526020019081526020015f205f6101000a81548160ff0219169083151502179055508173ffffffffffffffffffffffffffffffffffffffff168373ffffffffffffffffffffffffffffffffffffffff167f17307eab39ab6107e8899845ad3d59bd9653f200f220920489ca2b5937696c31836040516110fd9190611a21565b60405180910390a3505050565b5f8373ffffffffffffffffffffffffffffffffffffffff163b11156112b6578273ffffffffffffffffffffffffffffffffffffffff1663150b7a0261114d610c16565b8685856040518563ffffffff1660e01b815260040161116f94939291906120c6565b6020604051808303815f875af19250505080156111aa57506040513d601f19601f820116820180604052508101906111a79190612124565b60015b61122b573d805f81146111d8576040519150601f19603f3d011682016040523d82523d5f602084013e6111dd565b606091505b505f81510361122357836040517f64a0ae9200000000000000000000000000000000000000000000000000000000815260040161121a9190611b81565b60405180910390fd5b805181602001fd5b63150b7a0260e01b7bffffffffffffffffffffffffffffffffffffffffffffffffffffffff1916817bffffffffffffffffffffffffffffffffffffffffffffffffffffffff1916146112b457836040517f64a0ae920000000000000000000000000000000000000000000000000000000081526004016112ab9190611b81565b60405180910390fd5b505b50505050565b606060405180602001604052805f815250905090565b60605f60016112e084611672565b0190505f8167ffffffffffffffff8111156112fe576112fd611d15565b5b6040519080825280601f01601f1916602001820160405280156113305781602001600182028036833780820191505090505b5090505f82602001820190505b600115611391578080600190039150507f3031323334353637383961626364656600000000000000000000000000000000600a86061a8153600a85816113865761138561214f565b5b0494505f850361133d575b819350505050919050565b5f60025f8381526020019081526020015f205f9054906101000a900473ffffffffffffffffffffffffffffffffffffffff169050919050565b808061140d57505f73ffffffffffffffffffffffffffffffffffffffff168273ffffffffffffffffffffffffffffffffffffffff1614155b1561153f575f61141c84610b57565b90505f73ffffffffffffffffffffffffffffffffffffffff168373ffffffffffffffffffffffffffffffffffffffff161415801561148657508273ffffffffffffffffffffffffffffffffffffffff168173ffffffffffffffffffffffffffffffffffffffff1614155b8015611499575061149781846109dc565b155b156114db57826040517fa9fbf51f0000000000000000000000000000000000000000000000000000000081526004016114d29190611b81565b60405180910390fd5b811561153d57838573ffffffffffffffffffffffffffffffffffffffff168273ffffffffffffffffffffffffffffffffffffffff167f8c5be1e5ebec7d5bd14f71427d1e84f3dd0314c0f7b2291e5b200ac8c7c3b92560405160405180910390a45b505b8360045f8581526020019081526020015f205f6101000a81548173ffffffffffffffffffffffffffffffffffffffff021916908373ffffffffffffffffffffffffffffffffffffffff16021790555050505050565b61159f8383836117c3565b611652575f73ffffffffffffffffffffffffffffffffffffffff168373ffffffffffffffffffffffffffffffffffffffff160361161357806040517f7e27328900000000000000000000000000000000000000000000000000000000815260040161160a9190611c8c565b60405180910390fd5b81816040517f177e802f00000000000000000000000000000000000000000000000000000000815260040161164992919061217c565b60405180910390fd5b505050565b6116618383611883565b61166d5f84848461110a565b505050565b5f805f90507a184f03e93ff9f4daa797ed6e38ed64bf6a1f01000000000000000083106116ce577a184f03e93ff9f4daa797ed6e38ed64bf6a1f01000000000000000083816116c4576116c361214f565b5b0492506040810190505b6d04ee2d6d415b85acef8100000000831061170b576d04ee2d6d415b85acef810000000083816117015761170061214f565b5b0492506020810190505b662386f26fc10000831061173a57662386f26fc1000083816117305761172f61214f565b5b0492506010810190505b6305f5e1008310611763576305f5e10083816117595761175861214f565b5b0492506008810190505b612710831061178857612710838161177e5761177d61214f565b5b0492506004810190505b606483106117ab57606483816117a1576117a061214f565b5b0492506002810190505b600a83106117ba576001810190505b80915050919050565b5f8073ffffffffffffffffffffffffffffffffffffffff168373ffffffffffffffffffffffffffffffffffffffff161415801561187a57508273ffffffffffffffffffffffffffffffffffffffff168473ffffffffffffffffffffffffffffffffffffffff16148061183b575061183a84846109dc565b5b8061187957508273ffffffffffffffffffffffffffffffffffffffff1661186183610bdd565b73ffffffffffffffffffffffffffffffffffffffff16145b5b90509392505050565b5f73ffffffffffffffffffffffffffffffffffffffff168273ffffffffffffffffffffffffffffffffffffffff16036118f3575f6040517f64a0ae920000000000000000000000000000000000000000000000000000000081526004016118ea9190611b81565b60405180910390fd5b5f6118ff83835f610c2f565b90505f73ffffffffffffffffffffffffffffffffffffffff168173ffffffffffffffffffffffffffffffffffffffff1614611971575f6040517f73c6ac6e0000000000000000000000000000000000000000000000000000000081526004016119689190611b81565b60405180910390fd5b505050565b5f604051905090565b5f80fd5b5f80fd5b5f7fffffffff0000000000000000000000000000000000000000000000000000000082169050919050565b6119bb81611987565b81146119c5575f80fd5b50565b5f813590506119d6816119b2565b92915050565b5f602082840312156119f1576119f061197f565b5b5f6119fe848285016119c8565b91505092915050565b5f8115159050919050565b611a1b81611a07565b82525050565b5f602082019050611a345f830184611a12565b92915050565b5f81519050919050565b5f82825260208201905092915050565b5f5b83811015611a71578082015181840152602081019050611a56565b5f8484015250505050565b5f601f19601f8301169050919050565b5f611a9682611a3a565b611aa08185611a44565b9350611ab0818560208601611a54565b611ab981611a7c565b840191505092915050565b5f6020820190508181035f830152611adc8184611a8c565b905092915050565b5f819050919050565b611af681611ae4565b8114611b00575f80fd5b50565b5f81359050611b1181611aed565b92915050565b5f60208284031215611b2c57611b2b61197f565b5b5f611b3984828501611b03565b91505092915050565b5f73ffffffffffffffffffffffffffffffffffffffff82169050919050565b5f611b6b82611b42565b9050919050565b611b7b81611b61565b82525050565b5f602082019050611b945f830184611b72565b92915050565b611ba381611b61565b8114611bad575f80fd5b50565b5f81359050611bbe81611b9a565b92915050565b5f8060408385031215611bda57611bd961197f565b5b5f611be785828601611bb0565b9250506020611bf885828601611b03565b9150509250929050565b5f805f60608486031215611c1957611c1861197f565b5b5f611c2686828701611bb0565b9350506020611c3786828701611bb0565b9250506040611c4886828701611b03565b9150509250925092565b5f60208284031215611c6757611c6661197f565b5b5f611c7484828501611bb0565b91505092915050565b611c8681611ae4565b82525050565b5f602082019050611c9f5f830184611c7d565b92915050565b611cae81611a07565b8114611cb8575f80fd5b50565b5f81359050611cc981611ca5565b92915050565b5f8060408385031215611ce557611ce461197f565b5b5f611cf285828601611bb0565b9250506020611d0385828601611cbb565b9150509250929050565b5f80fd5b5f80fd5b7f4e487b71000000000000000000000000000000000000000000000000000000005f52604160045260245ffd5b611d4b82611a7c565b810181811067ffffffffffffffff82111715611d6a57611d69611d15565b5b80604052505050565b5f611d7c611976565b9050611d888282611d42565b919050565b5f67ffffffffffffffff821115611da757611da6611d15565b5b611db082611a7c565b9050602081019050919050565b828183375f83830152505050565b5f611ddd611dd884611d8d565b611d73565b905082815260208101848484011115611df957611df8611d11565b5b611e04848285611dbd565b509392505050565b5f82601f830112611e2057611e1f611d0d565b5b8135611e30848260208601611dcb565b91505092915050565b5f805f8060808587031215611e5157611e5061197f565b5b5f611e5e87828801611bb0565b9450506020611e6f87828801611bb0565b9350506040611e8087828801611b03565b925050606085013567ffffffffffffffff811115611ea157611ea0611983565b5b611ead87828801611e0c565b91505092959194509250565b5f8060408385031215611ecf57611ece61197f565b5b5f611edc85828601611bb0565b9250506020611eed85828601611bb0565b9150509250929050565b7f4e487b71000000000000000000000000000000000000000000000000000000005f52602260045260245ffd5b5f6002820490506001821680611f3b57607f821691505b602082108103611f4e57611f4d611ef7565b5b50919050565b5f606082019050611f675f830186611b72565b611f746020830185611c7d565b611f816040830184611b72565b949350505050565b7f546f6b656e20616c7265616479206d696e74656420666f7220746869732061635f8201527f636f756e7420616e642049440000000000000000000000000000000000000000602082015250565b5f611fe3602c83611a44565b9150611fee82611f89565b604082019050919050565b5f6020820190508181035f83015261201081611fd7565b9050919050565b5f81905092915050565b5f61202b82611a3a565b6120358185612017565b9350612045818560208601611a54565b80840191505092915050565b5f61205c8285612021565b91506120688284612021565b91508190509392505050565b5f81519050919050565b5f82825260208201905092915050565b5f61209882612074565b6120a2818561207e565b93506120b2818560208601611a54565b6120bb81611a7c565b840191505092915050565b5f6080820190506120d95f830187611b72565b6120e66020830186611b72565b6120f36040830185611c7d565b8181036060830152612105818461208e565b905095945050505050565b5f8151905061211e816119b2565b92915050565b5f602082840312156121395761213861197f565b5b5f61214684828501612110565b91505092915050565b7f4e487b71000000000000000000000000000000000000000000000000000000005f52601260045260245ffd5b5f60408201905061218f5f830185611b72565b61219c6020830184611c7d565b939250505056fea26469706673582212203b8b707bd40ab969c8f536eebf61d49c3622dcc997708a666d560f1b9239df6a64736f6c63430008140033",
  "immutableReferences": {},
  "source": "// Authentication.sol\r\n// SPDX-License-Identifier: MIT\r\npragma solidity ^0.8.0;\r\n\r\nimport \"@openzeppelin/contracts/token/ERC721/ERC721.sol\";\r\nimport \"@openzeppelin/contracts/access/Ownable.sol\";\r\n\r\ncontract Authentication is ERC721, Ownable {\r\n    constructor(address initialOwner) ERC721(\"AuthenticationToken\", \"AUTH\") Ownable(initialOwner) {}\r\n\r\n    mapping(uint256 => bool) private _tokenExists;\r\n    mapping(address => mapping(uint256 => bool)) private _accountTokens;\r\n    function mintToken(address to, uint256 tokenId) public onlyOwner {\r\n        require(!_accountTokens[to][tokenId], \"Token already minted for this account and ID\");\r\n        _safeMint(to, tokenId);\r\n        _tokenExists[tokenId] = true;\r\n        _accountTokens[to][tokenId] = true;\r\n    }\r\n\r\n    function authenticate(uint256 tokenId) public view returns (bool) {\r\n        return _tokenExists[tokenId];\r\n    }\r\n}\r\n",
  "sourcePath": "D:\\authentication_blockchain\\contracts\\authentication.sol",
  "compiler": {
    "name": "solc",
    "version": "0.8.20+commit.a1b79de6.Emscripten.clang"
  },
  "schemaVersion": "3.4.16",
  "updatedAt": "2023-12-23T19:33:41.944Z",
  "networkType": "ethereum",
  "devdoc": {
    "errors": {
      "ERC721IncorrectOwner(address,uint256,address)": [
        {
          "details": "Indicates an error related to the ownership over a particular token. Used in transfers.",
          "params": {
            "owner": "Address of the current owner of a token.",
            "sender": "Address whose tokens are being transferred.",
            "tokenId": "Identifier number of a token."
          }
        }
      ],
      "ERC721InsufficientApproval(address,uint256)": [
        {
          "details": "Indicates a failure with the `operator`s approval. Used in transfers.",
          "params": {
            "operator": "Address that may be allowed to operate on tokens without being their owner.",
            "tokenId": "Identifier number of a token."
          }
        }
      ],
      "ERC721InvalidApprover(address)": [
        {
          "details": "Indicates a failure with the `approver` of a token to be approved. Used in approvals.",
          "params": {
            "approver": "Address initiating an approval operation."
          }
        }
      ],
      "ERC721InvalidOperator(address)": [
        {
          "details": "Indicates a failure with the `operator` to be approved. Used in approvals.",
          "params": {
            "operator": "Address that may be allowed to operate on tokens without being their owner."
          }
        }
      ],
      "ERC721InvalidOwner(address)": [
        {
          "details": "Indicates that an address can't be an owner. For example, `address(0)` is a forbidden owner in EIP-20. Used in balance queries.",
          "params": {
            "owner": "Address of the current owner of a token."
          }
        }
      ],
      "ERC721InvalidReceiver(address)": [
        {
          "details": "Indicates a failure with the token `receiver`. Used in transfers.",
          "params": {
            "receiver": "Address to which tokens are being transferred."
          }
        }
      ],
      "ERC721InvalidSender(address)": [
        {
          "details": "Indicates a failure with the token `sender`. Used in transfers.",
          "params": {
            "sender": "Address whose tokens are being transferred."
          }
        }
      ],
      "ERC721NonexistentToken(uint256)": [
        {
          "details": "Indicates a `tokenId` whose `owner` is the zero address.",
          "params": {
            "tokenId": "Identifier number of a token."
          }
        }
      ],
      "OwnableInvalidOwner(address)": [
        {
          "details": "The owner is not a valid owner account. (eg. `address(0)`)"
        }
      ],
      "OwnableUnauthorizedAccount(address)": [
        {
          "details": "The caller account is not authorized to perform an operation."
        }
      ]
    },
    "events": {
      "Approval(address,address,uint256)": {
        "details": "Emitted when `owner` enables `approved` to manage the `tokenId` token."
      },
      "ApprovalForAll(address,address,bool)": {
        "details": "Emitted when `owner` enables or disables (`approved`) `operator` to manage all of its assets."
      },
      "Transfer(address,address,uint256)": {
        "details": "Emitted when `tokenId` token is transferred from `from` to `to`."
      }
    },
    "kind": "dev",
    "methods": {
      "approve(address,uint256)": {
        "details": "See {IERC721-approve}."
      },
      "balanceOf(address)": {
        "details": "See {IERC721-balanceOf}."
      },
      "getApproved(uint256)": {
        "details": "See {IERC721-getApproved}."
      },
      "isApprovedForAll(address,address)": {
        "details": "See {IERC721-isApprovedForAll}."
      },
      "name()": {
        "details": "See {IERC721Metadata-name}."
      },
      "owner()": {
        "details": "Returns the address of the current owner."
      },
      "ownerOf(uint256)": {
        "details": "See {IERC721-ownerOf}."
      },
      "renounceOwnership()": {
        "details": "Leaves the contract without owner. It will not be possible to call `onlyOwner` functions. Can only be called by the current owner. NOTE: Renouncing ownership will leave the contract without an owner, thereby disabling any functionality that is only available to the owner."
      },
      "safeTransferFrom(address,address,uint256)": {
        "details": "See {IERC721-safeTransferFrom}."
      },
      "safeTransferFrom(address,address,uint256,bytes)": {
        "details": "See {IERC721-safeTransferFrom}."
      },
      "setApprovalForAll(address,bool)": {
        "details": "See {IERC721-setApprovalForAll}."
      },
      "supportsInterface(bytes4)": {
        "details": "See {IERC165-supportsInterface}."
      },
      "symbol()": {
        "details": "See {IERC721Metadata-symbol}."
      },
      "tokenURI(uint256)": {
        "details": "See {IERC721Metadata-tokenURI}."
      },
      "transferFrom(address,address,uint256)": {
        "details": "See {IERC721-transferFrom}."
      },
      "transferOwnership(address)": {
        "details": "Transfers ownership of the contract to a new account (`newOwner`). Can only be called by the current owner."
      }
    },
    "version": 1
  },
  "userdoc": {
    "kind": "user",
    "methods": {},
    "version": 1
  }
}